{
  "_format": "hh-sol-artifact-1",
  "contractName": "DepositToCard",
  "sourceName": "contracts/test.sol",
  "abi": [
    {
      "inputs": [],
      "stateMutability": "nonpayable",
      "type": "constructor"
    },
    {
      "anonymous": false,
      "inputs": [
        {
          "indexed": true,
          "internalType": "address",
          "name": "user",
          "type": "address"
        },
        {
          "indexed": false,
          "internalType": "uint256",
          "name": "amount",
          "type": "uint256"
        }
      ],
      "name": "BalanceDeducted",
      "type": "event"
    },
    {
      "anonymous": false,
      "inputs": [
        {
          "indexed": true,
          "internalType": "address",
          "name": "from",
          "type": "address"
        },
        {
          "indexed": true,
          "internalType": "address",
          "name": "to",
          "type": "address"
        },
        {
          "indexed": false,
          "internalType": "uint256",
          "name": "amount",
          "type": "uint256"
        }
      ],
      "name": "BalanceTransferred",
      "type": "event"
    },
    {
      "anonymous": false,
      "inputs": [
        {
          "indexed": true,
          "internalType": "address",
          "name": "from",
          "type": "address"
        },
        {
          "indexed": false,
          "internalType": "uint256",
          "name": "amount",
          "type": "uint256"
        }
      ],
      "name": "DepositReceived",
      "type": "event"
    },
    {
      "anonymous": false,
      "inputs": [
        {
          "indexed": true,
          "internalType": "address",
          "name": "user",
          "type": "address"
        }
      ],
      "name": "VirtualCardRequested",
      "type": "event"
    },
    {
      "anonymous": false,
      "inputs": [
        {
          "indexed": true,
          "internalType": "address",
          "name": "user",
          "type": "address"
        },
        {
          "indexed": false,
          "internalType": "string",
          "name": "encryptedData",
          "type": "string"
        }
      ],
      "name": "VirtualCardStored",
      "type": "event"
    },
    {
      "inputs": [
        {
          "internalType": "address",
          "name": "",
          "type": "address"
        }
      ],
      "name": "balances",
      "outputs": [
        {
          "internalType": "uint256",
          "name": "",
          "type": "uint256"
        }
      ],
      "stateMutability": "view",
      "type": "function"
    },
    {
      "inputs": [],
      "name": "cardRequestCost",
      "outputs": [
        {
          "internalType": "uint256",
          "name": "",
          "type": "uint256"
        }
      ],
      "stateMutability": "view",
      "type": "function"
    },
    {
      "inputs": [],
      "name": "depositETH",
      "outputs": [],
      "stateMutability": "payable",
      "type": "function"
    },
    {
      "inputs": [
        {
          "internalType": "address",
          "name": "user",
          "type": "address"
        }
      ],
      "name": "getEncryptedCardData",
      "outputs": [
        {
          "internalType": "string[]",
          "name": "",
          "type": "string[]"
        }
      ],
      "stateMutability": "view",
      "type": "function"
    },
    {
      "inputs": [],
      "name": "owner",
      "outputs": [
        {
          "internalType": "address",
          "name": "",
          "type": "address"
        }
      ],
      "stateMutability": "view",
      "type": "function"
    },
    {
      "inputs": [],
      "name": "requestVirtualCard",
      "outputs": [],
      "stateMutability": "nonpayable",
      "type": "function"
    },
    {
      "inputs": [
        {
          "internalType": "uint256",
          "name": "_newCost",
          "type": "uint256"
        }
      ],
      "name": "setCardRequestCost",
      "outputs": [],
      "stateMutability": "nonpayable",
      "type": "function"
    },
    {
      "inputs": [
        {
          "internalType": "address",
          "name": "user",
          "type": "address"
        },
        {
          "internalType": "uint256",
          "name": "deductionAmount",
          "type": "uint256"
        },
        {
          "internalType": "string",
          "name": "encryptedCardData",
          "type": "string"
        }
      ],
      "name": "storeCardAndDeductBalance",
      "outputs": [],
      "stateMutability": "nonpayable",
      "type": "function"
    },
    {
      "inputs": [
        {
          "internalType": "address",
          "name": "to",
          "type": "address"
        },
        {
          "internalType": "uint256",
          "name": "amount",
          "type": "uint256"
        }
      ],
      "name": "transferBalance",
      "outputs": [],
      "stateMutability": "nonpayable",
      "type": "function"
    },
    {
      "inputs": [
        {
          "internalType": "uint256",
          "name": "amount",
          "type": "uint256"
        }
      ],
      "name": "withdrawETH",
      "outputs": [],
      "stateMutability": "nonpayable",
      "type": "function"
    }
  ],
  "bytecode": "0x6080604052662386f26fc1000060035534801561001b57600080fd5b50336000806101000a81548173ffffffffffffffffffffffffffffffffffffffff021916908373ffffffffffffffffffffffffffffffffffffffff16021790555061182b8061006b6000396000f3fe6080604052600436106100915760003560e01c80638da5cb5b116100595780638da5cb5b1461018b578063c02a8a3a146101b6578063da006539146101e1578063f14210a6146101f8578063f6326fb31461022157610091565b806319eac8c414610096578063258f41cb146100bf57806327e235e3146100e857806346a9e86b1461012557806356a6d9ef14610162575b600080fd5b3480156100a257600080fd5b506100bd60048036038101906100b89190610d9b565b61022b565b005b3480156100cb57600080fd5b506100e660048036038101906100e19190610e0f565b6104b0565b005b3480156100f457600080fd5b5061010f600480360381019061010a9190610e3c565b610548565b60405161011c9190610e78565b60405180910390f35b34801561013157600080fd5b5061014c60048036038101906101479190610e3c565b610560565b6040516101599190610fe5565b60405180910390f35b34801561016e57600080fd5b5061018960048036038101906101849190611007565b61073c565b005b34801561019757600080fd5b506101a0610942565b6040516101ad9190611056565b60405180910390f35b3480156101c257600080fd5b506101cb610966565b6040516101d89190610e78565b60405180910390f35b3480156101ed57600080fd5b506101f661096c565b005b34801561020457600080fd5b5061021f600480360381019061021a9190610e0f565b610a8d565b005b610229610baf565b005b60008054906101000a900473ffffffffffffffffffffffffffffffffffffffff1673ffffffffffffffffffffffffffffffffffffffff163373ffffffffffffffffffffffffffffffffffffffff16146102b9576040517f08c379a00000000000000000000000000000000000000000000000000000000081526004016102b0906110f4565b60405180910390fd5b82600160008673ffffffffffffffffffffffffffffffffffffffff1673ffffffffffffffffffffffffffffffffffffffff16815260200190815260200160002054101561033b576040517f08c379a000000000000000000000000000000000000000000000000000000000815260040161033290611160565b60405180910390fd5b82600160008673ffffffffffffffffffffffffffffffffffffffff1673ffffffffffffffffffffffffffffffffffffffff168152602001908152602001600020600082825461038a91906111af565b92505081905550600260008573ffffffffffffffffffffffffffffffffffffffff1673ffffffffffffffffffffffffffffffffffffffff16815260200190815260200160002082829091806001815401808255809150506001900390600052602060002001600090919290919290919290919250918261040b929190611429565b508373ffffffffffffffffffffffffffffffffffffffff167fef6a49792744cafccebe16a3835e276cd3f5f1bb8a47e2d95e6fdf0610e83acc846040516104529190610e78565b60405180910390a28373ffffffffffffffffffffffffffffffffffffffff167f2fcd9ed93769e782e5c14a3a5163a479d9685677fcf7c6e1b60b67787682fc2883836040516104a2929190611535565b60405180910390a250505050565b60008054906101000a900473ffffffffffffffffffffffffffffffffffffffff1673ffffffffffffffffffffffffffffffffffffffff163373ffffffffffffffffffffffffffffffffffffffff161461053e576040517f08c379a0000000000000000000000000000000000000000000000000000000008152600401610535906110f4565b60405180910390fd5b8060038190555050565b60016020528060005260406000206000915090505481565b60608173ffffffffffffffffffffffffffffffffffffffff163373ffffffffffffffffffffffffffffffffffffffff1614806105e7575060008054906101000a900473ffffffffffffffffffffffffffffffffffffffff1673ffffffffffffffffffffffffffffffffffffffff163373ffffffffffffffffffffffffffffffffffffffff16145b610626576040517f08c379a000000000000000000000000000000000000000000000000000000000815260040161061d906115a5565b60405180910390fd5b600260008373ffffffffffffffffffffffffffffffffffffffff1673ffffffffffffffffffffffffffffffffffffffff168152602001908152602001600020805480602002602001604051908101604052809291908181526020016000905b828210156107315783829060005260206000200180546106a49061124c565b80601f01602080910402602001604051908101604052809291908181526020018280546106d09061124c565b801561071d5780601f106106f25761010080835404028352916020019161071d565b820191906000526020600020905b81548152906001019060200180831161070057829003601f168201915b505050505081526020019060010190610685565b505050509050919050565b80600160003373ffffffffffffffffffffffffffffffffffffffff1673ffffffffffffffffffffffffffffffffffffffff1681526020019081526020016000205410156107be576040517f08c379a00000000000000000000000000000000000000000000000000000000081526004016107b590611611565b60405180910390fd5b600073ffffffffffffffffffffffffffffffffffffffff168273ffffffffffffffffffffffffffffffffffffffff160361082d576040517f08c379a0000000000000000000000000000000000000000000000000000000008152600401610824906116a3565b60405180910390fd5b80600160003373ffffffffffffffffffffffffffffffffffffffff1673ffffffffffffffffffffffffffffffffffffffff168152602001908152602001600020600082825461087c91906111af565b9250508190555080600160008473ffffffffffffffffffffffffffffffffffffffff1673ffffffffffffffffffffffffffffffffffffffff16815260200190815260200160002060008282546108d291906116c3565b925050819055508173ffffffffffffffffffffffffffffffffffffffff163373ffffffffffffffffffffffffffffffffffffffff167f4163d0b06696468b3d7903f482bcd0097bd38a9a9086157479fd6c6561d24261836040516109369190610e78565b60405180910390a35050565b60008054906101000a900473ffffffffffffffffffffffffffffffffffffffff1681565b60035481565b600354600160003373ffffffffffffffffffffffffffffffffffffffff1673ffffffffffffffffffffffffffffffffffffffff1681526020019081526020016000205410156109f0576040517f08c379a00000000000000000000000000000000000000000000000000000000081526004016109e790611769565b60405180910390fd5b600354600160003373ffffffffffffffffffffffffffffffffffffffff1673ffffffffffffffffffffffffffffffffffffffff1681526020019081526020016000206000828254610a4191906111af565b925050819055503373ffffffffffffffffffffffffffffffffffffffff167ff26b73fb66acbfafc3a455c3d24fcd00dcdc483a836ed36a9105b47980ff04e760405160405180910390a2565b80600160003373ffffffffffffffffffffffffffffffffffffffff1673ffffffffffffffffffffffffffffffffffffffff168152602001908152602001600020541015610b0f576040517f08c379a0000000000000000000000000000000000000000000000000000000008152600401610b0690611160565b60405180910390fd5b80600160003373ffffffffffffffffffffffffffffffffffffffff1673ffffffffffffffffffffffffffffffffffffffff1681526020019081526020016000206000828254610b5e91906111af565b925050819055503373ffffffffffffffffffffffffffffffffffffffff166108fc829081150290604051600060405180830381858888f19350505050158015610bab573d6000803e3d6000fd5b5050565b60003411610bf2576040517f08c379a0000000000000000000000000000000000000000000000000000000008152600401610be9906117d5565b60405180910390fd5b34600160003373ffffffffffffffffffffffffffffffffffffffff1673ffffffffffffffffffffffffffffffffffffffff1681526020019081526020016000206000828254610c4191906116c3565b925050819055503373ffffffffffffffffffffffffffffffffffffffff167f9936746a4565f9766fa768f88f56a7487c78780ac179562773d1c75c5269537e34604051610c8e9190610e78565b60405180910390a2565b600080fd5b600080fd5b600073ffffffffffffffffffffffffffffffffffffffff82169050919050565b6000610ccd82610ca2565b9050919050565b610cdd81610cc2565b8114610ce857600080fd5b50565b600081359050610cfa81610cd4565b92915050565b6000819050919050565b610d1381610d00565b8114610d1e57600080fd5b50565b600081359050610d3081610d0a565b92915050565b600080fd5b600080fd5b600080fd5b60008083601f840112610d5b57610d5a610d36565b5b8235905067ffffffffffffffff811115610d7857610d77610d3b565b5b602083019150836001820283011115610d9457610d93610d40565b5b9250929050565b60008060008060608587031215610db557610db4610c98565b5b6000610dc387828801610ceb565b9450506020610dd487828801610d21565b935050604085013567ffffffffffffffff811115610df557610df4610c9d565b5b610e0187828801610d45565b925092505092959194509250565b600060208284031215610e2557610e24610c98565b5b6000610e3384828501610d21565b91505092915050565b600060208284031215610e5257610e51610c98565b5b6000610e6084828501610ceb565b91505092915050565b610e7281610d00565b82525050565b6000602082019050610e8d6000830184610e69565b92915050565b600081519050919050565b600082825260208201905092915050565b6000819050602082019050919050565b600081519050919050565b600082825260208201905092915050565b60005b83811015610ef9578082015181840152602081019050610ede565b60008484015250505050565b6000601f19601f8301169050919050565b6000610f2182610ebf565b610f2b8185610eca565b9350610f3b818560208601610edb565b610f4481610f05565b840191505092915050565b6000610f5b8383610f16565b905092915050565b6000602082019050919050565b6000610f7b82610e93565b610f858185610e9e565b935083602082028501610f9785610eaf565b8060005b85811015610fd35784840389528151610fb48582610f4f565b9450610fbf83610f63565b925060208a01995050600181019050610f9b565b50829750879550505050505092915050565b60006020820190508181036000830152610fff8184610f70565b905092915050565b6000806040838503121561101e5761101d610c98565b5b600061102c85828601610ceb565b925050602061103d85828601610d21565b9150509250929050565b61105081610cc2565b82525050565b600060208201905061106b6000830184611047565b92915050565b600082825260208201905092915050565b7f4f6e6c7920746865206f776e65722063616e20706572666f726d20746869732060008201527f616374696f6e2e00000000000000000000000000000000000000000000000000602082015250565b60006110de602783611071565b91506110e982611082565b604082019050919050565b6000602082019050818103600083015261110d816110d1565b9050919050565b7f496e73756666696369656e742062616c616e6365000000000000000000000000600082015250565b600061114a601483611071565b915061115582611114565b602082019050919050565b600060208201905081810360008301526111798161113d565b9050919050565b7f4e487b7100000000000000000000000000000000000000000000000000000000600052601160045260246000fd5b60006111ba82610d00565b91506111c583610d00565b92508282039050818111156111dd576111dc611180565b5b92915050565b600082905092915050565b7f4e487b7100000000000000000000000000000000000000000000000000000000600052604160045260246000fd5b7f4e487b7100000000000000000000000000000000000000000000000000000000600052602260045260246000fd5b6000600282049050600182168061126457607f821691505b6020821081036112775761127661121d565b5b50919050565b60008190508160005260206000209050919050565b60006020601f8301049050919050565b600082821b905092915050565b6000600883026112df7fffffffffffffffffffffffffffffffffffffffffffffffffffffffffffffffff826112a2565b6112e986836112a2565b95508019841693508086168417925050509392505050565b6000819050919050565b600061132661132161131c84610d00565b611301565b610d00565b9050919050565b6000819050919050565b6113408361130b565b61135461134c8261132d565b8484546112af565b825550505050565b600090565b61136961135c565b611374818484611337565b505050565b5b818110156113985761138d600082611361565b60018101905061137a565b5050565b601f8211156113dd576113ae8161127d565b6113b784611292565b810160208510156113c6578190505b6113da6113d285611292565b830182611379565b50505b505050565b600082821c905092915050565b6000611400600019846008026113e2565b1980831691505092915050565b600061141983836113ef565b9150826002028217905092915050565b61143383836111e3565b67ffffffffffffffff81111561144c5761144b6111ee565b5b611456825461124c565b61146182828561139c565b6000601f831160018114611490576000841561147e578287013590505b611488858261140d565b8655506114f0565b601f19841661149e8661127d565b60005b828110156114c6578489013582556001820191506020850194506020810190506114a1565b868310156114e357848901356114df601f8916826113ef565b8355505b6001600288020188555050505b50505050505050565b82818337600083830152505050565b60006115148385611071565b93506115218385846114f9565b61152a83610f05565b840190509392505050565b60006020820190508181036000830152611550818486611508565b90509392505050565b7f556e617574686f72697a65642061636365737300000000000000000000000000600082015250565b600061158f601383611071565b915061159a82611559565b602082019050919050565b600060208201905081810360008301526115be81611582565b9050919050565b7f496e73756666696369656e742062616c616e636520746f207472616e73666572600082015250565b60006115fb602083611071565b9150611606826115c5565b602082019050919050565b6000602082019050818103600083015261162a816115ee565b9050919050565b7f43616e6e6f74207472616e7366657220746f20746865207a65726f206164647260008201527f6573730000000000000000000000000000000000000000000000000000000000602082015250565b600061168d602383611071565b915061169882611631565b604082019050919050565b600060208201905081810360008301526116bc81611680565b9050919050565b60006116ce82610d00565b91506116d983610d00565b92508282019050808211156116f1576116f0611180565b5b92915050565b7f496e73756666696369656e742062616c616e636520666f72206361726420726560008201527f7175657374000000000000000000000000000000000000000000000000000000602082015250565b6000611753602583611071565b915061175e826116f7565b604082019050919050565b6000602082019050818103600083015261178281611746565b9050919050565b7f4465706f736974206d7573742062652067726561746572207468616e20300000600082015250565b60006117bf601e83611071565b91506117ca82611789565b602082019050919050565b600060208201905081810360008301526117ee816117b2565b905091905056fea2646970667358221220bc73bb54aba92367fe1cd8fea7c70a66a0b35a7f04422c709f42a6559e7dd65c64736f6c63430008180033",
  "linkReferences": {},
  "deployedLinkReferences": {}
}